{
  "_format": "hh-sol-artifact-1",
  "contractName": "DepositContract",
  "sourceName": "contracts/Deposit.sol",
  "abi": [
    {
      "anonymous": false,
      "inputs": [
        {
          "indexed": true,
          "internalType": "address",
          "name": "user",
          "type": "address"
        },
        {
          "indexed": false,
          "internalType": "uint256",
          "name": "amount",
          "type": "uint256"
        }
      ],
      "name": "Deposit",
      "type": "event"
    },
    {
      "anonymous": false,
      "inputs": [
        {
          "indexed": true,
          "internalType": "address",
          "name": "user",
          "type": "address"
        },
        {
          "indexed": false,
          "internalType": "uint256",
          "name": "amount",
          "type": "uint256"
        }
      ],
      "name": "Withdrawal",
      "type": "event"
    },
    {
      "inputs": [
        {
          "internalType": "address",
          "name": "",
          "type": "address"
        }
      ],
      "name": "balances",
      "outputs": [
        {
          "internalType": "uint256",
          "name": "",
          "type": "uint256"
        }
      ],
      "stateMutability": "view",
      "type": "function"
    },
    {
      "inputs": [],
      "name": "deposit",
      "outputs": [],
      "stateMutability": "payable",
      "type": "function"
    },
    {
      "inputs": [
        {
          "internalType": "address",
          "name": "user",
          "type": "address"
        }
      ],
      "name": "getUserBalance",
      "outputs": [
        {
          "internalType": "uint256",
          "name": "",
          "type": "uint256"
        }
      ],
      "stateMutability": "view",
      "type": "function"
    },
    {
      "inputs": [
        {
          "internalType": "uint256",
          "name": "amount",
          "type": "uint256"
        }
      ],
      "name": "withdraw",
      "outputs": [],
      "stateMutability": "nonpayable",
      "type": "function"
    }
  ],
  "bytecode": "0x608060405234801561001057600080fd5b5061077b806100206000396000f3fe60806040526004361061003f5760003560e01c806327e235e3146100445780632e1a7d4d1461008157806347734892146100aa578063d0e30db0146100e7575b600080fd5b34801561005057600080fd5b5061006b60048036038101906100669190610453565b6100f1565b6040516100789190610499565b60405180910390f35b34801561008d57600080fd5b506100a860048036038101906100a391906104e0565b610109565b005b3480156100b657600080fd5b506100d160048036038101906100cc9190610453565b6102c0565b6040516100de9190610499565b60405180910390f35b6100ef610308565b005b60006020528060005260406000206000915090505481565b60008060003373ffffffffffffffffffffffffffffffffffffffff1673ffffffffffffffffffffffffffffffffffffffff1681526020019081526020016000205490506000821161018f576040517f08c379a000000000000000000000000000000000000000000000000000000000815260040161018690610590565b60405180910390fd5b818110156101d2576040517f08c379a00000000000000000000000000000000000000000000000000000000081526004016101c9906105fc565b60405180910390fd5b816000803373ffffffffffffffffffffffffffffffffffffffff1673ffffffffffffffffffffffffffffffffffffffff1681526020019081526020016000206000828254610220919061064b565b925050819055503373ffffffffffffffffffffffffffffffffffffffff166108fc839081150290604051600060405180830381858888f1935050505015801561026d573d6000803e3d6000fd5b503373ffffffffffffffffffffffffffffffffffffffff167f7fcf532c15f0a6db0bd6d0e038bea71d30d808c7d98cb3bf7268a95bf5081b65836040516102b49190610499565b60405180910390a25050565b60008060008373ffffffffffffffffffffffffffffffffffffffff1673ffffffffffffffffffffffffffffffffffffffff168152602001908152602001600020549050919050565b6000341161034b576040517f08c379a0000000000000000000000000000000000000000000000000000000008152600401610342906106f1565b60405180910390fd5b346000803373ffffffffffffffffffffffffffffffffffffffff1673ffffffffffffffffffffffffffffffffffffffff16815260200190815260200160002060008282546103999190610711565b925050819055503373ffffffffffffffffffffffffffffffffffffffff167fe1fffcc4923d04b559f4d29a8bfc6cda04eb5b0d3c460751c2402c5c5cc9109c346040516103e69190610499565b60405180910390a2565b600080fd5b600073ffffffffffffffffffffffffffffffffffffffff82169050919050565b6000610420826103f5565b9050919050565b61043081610415565b811461043b57600080fd5b50565b60008135905061044d81610427565b92915050565b600060208284031215610469576104686103f0565b5b60006104778482850161043e565b91505092915050565b6000819050919050565b61049381610480565b82525050565b60006020820190506104ae600083018461048a565b92915050565b6104bd81610480565b81146104c857600080fd5b50565b6000813590506104da816104b4565b92915050565b6000602082840312156104f6576104f56103f0565b5b6000610504848285016104cb565b91505092915050565b600082825260208201905092915050565b7f5769746864726177616c20616d6f756e74206d7573742062652067726561746560008201527f72207468616e2030000000000000000000000000000000000000000000000000602082015250565b600061057a60288361050d565b91506105858261051e565b604082019050919050565b600060208201905081810360008301526105a98161056d565b9050919050565b7f496e73756666696369656e742062616c616e6365000000000000000000000000600082015250565b60006105e660148361050d565b91506105f1826105b0565b602082019050919050565b60006020820190508181036000830152610615816105d9565b9050919050565b7f4e487b7100000000000000000000000000000000000000000000000000000000600052601160045260246000fd5b600061065682610480565b915061066183610480565b92508282039050818111156106795761067861061c565b5b92915050565b7f4465706f73697420616d6f756e74206d7573742062652067726561746572207460008201527f68616e2030000000000000000000000000000000000000000000000000000000602082015250565b60006106db60258361050d565b91506106e68261067f565b604082019050919050565b6000602082019050818103600083015261070a816106ce565b9050919050565b600061071c82610480565b915061072783610480565b925082820190508082111561073f5761073e61061c565b5b9291505056fea26469706673582212201d6f7e937670c0acf22e2a367eeaa8b46d69e75cbce3b58e9a717f3089d23b1764736f6c63430008180033",
  "linkReferences": {},
  "deployedLinkReferences": {}
}