{
  "_format": "hh-sol-artifact-1",
  "contractName": "DepositContract",
  "sourceName": "contracts/Deposit.sol",
  "abi": [
    {
      "anonymous": false,
      "inputs": [
        {
          "indexed": true,
          "internalType": "address",
          "name": "user",
          "type": "address"
        },
        {
          "indexed": false,
          "internalType": "uint256",
          "name": "amount",
          "type": "uint256"
        }
      ],
      "name": "Deposit",
      "type": "event"
    },
    {
      "anonymous": false,
      "inputs": [
        {
          "indexed": true,
          "internalType": "address",
          "name": "user",
          "type": "address"
        },
        {
          "indexed": false,
          "internalType": "uint256",
          "name": "amount",
          "type": "uint256"
        }
      ],
      "name": "Withdraw",
      "type": "event"
    },
    {
      "inputs": [],
      "name": "MAX_DEPOSIT",
      "outputs": [
        {
          "internalType": "uint256",
          "name": "",
          "type": "uint256"
        }
      ],
      "stateMutability": "view",
      "type": "function"
    },
    {
      "inputs": [],
      "name": "MAX_WITHDRAW",
      "outputs": [
        {
          "internalType": "uint256",
          "name": "",
          "type": "uint256"
        }
      ],
      "stateMutability": "view",
      "type": "function"
    },
    {
      "inputs": [
        {
          "internalType": "address",
          "name": "",
          "type": "address"
        }
      ],
      "name": "balances",
      "outputs": [
        {
          "internalType": "uint256",
          "name": "",
          "type": "uint256"
        }
      ],
      "stateMutability": "view",
      "type": "function"
    },
    {
      "inputs": [],
      "name": "contractBalance",
      "outputs": [
        {
          "internalType": "uint256",
          "name": "",
          "type": "uint256"
        }
      ],
      "stateMutability": "view",
      "type": "function"
    },
    {
      "inputs": [],
      "name": "deposit",
      "outputs": [],
      "stateMutability": "payable",
      "type": "function"
    },
    {
      "inputs": [
        {
          "internalType": "address",
          "name": "user",
          "type": "address"
        }
      ],
      "name": "getUserBalance",
      "outputs": [
        {
          "internalType": "uint256",
          "name": "",
          "type": "uint256"
        }
      ],
      "stateMutability": "view",
      "type": "function"
    },
    {
      "inputs": [
        {
          "internalType": "uint256",
          "name": "amount",
          "type": "uint256"
        }
      ],
      "name": "withdraw",
      "outputs": [],
      "stateMutability": "nonpayable",
      "type": "function"
    }
  ],
  "bytecode": "0x608060405234801561001057600080fd5b50610afc806100206000396000f3fe6080604052600436106100705760003560e01c8063852aa16b1161004e578063852aa16b146101185780638b7afe2e14610143578063d0e30db01461016e578063dd5967c31461017857610070565b806327e235e3146100755780632e1a7d4d146100b257806347734892146100db575b600080fd5b34801561008157600080fd5b5061009c60048036038101906100979190610658565b6101a3565b6040516100a9919061069e565b60405180910390f35b3480156100be57600080fd5b506100d960048036038101906100d491906106e5565b6101bb565b005b3480156100e757600080fd5b5061010260048036038101906100fd9190610658565b610460565b60405161010f919061069e565b60405180910390f35b34801561012457600080fd5b5061012d6104a8565b60405161013a919061069e565b60405180910390f35b34801561014f57600080fd5b506101586104b5565b604051610165919061069e565b60405180910390f35b6101766104bd565b005b34801561018457600080fd5b5061018d6105e8565b60405161019a919061069e565b60405180910390f35b60006020528060005260406000206000915090505481565b600160009054906101000a900460ff161561020b576040517f08c379a00000000000000000000000000000000000000000000000000000000081526004016102029061076f565b60405180910390fd5b60018060006101000a81548160ff0219169083151502179055506802b5e3af16b1880000811115610271576040517f08c379a000000000000000000000000000000000000000000000000000000000815260040161026890610801565b60405180910390fd5b806000803373ffffffffffffffffffffffffffffffffffffffff1673ffffffffffffffffffffffffffffffffffffffff1681526020019081526020016000205410156102f2576040517f08c379a00000000000000000000000000000000000000000000000000000000081526004016102e99061086d565b60405180910390fd5b806000803373ffffffffffffffffffffffffffffffffffffffff1673ffffffffffffffffffffffffffffffffffffffff168152602001908152602001600020600082825461034091906108bc565b9250508190555060003373ffffffffffffffffffffffffffffffffffffffff168260405161036d90610921565b60006040518083038185875af1925050503d80600081146103aa576040519150601f19603f3d011682016040523d82523d6000602084013e6103af565b606091505b50509050806103f3576040517f08c379a00000000000000000000000000000000000000000000000000000000081526004016103ea90610982565b60405180910390fd5b3373ffffffffffffffffffffffffffffffffffffffff167f884edad9ce6fa2440d8a54cc123490eb96d2768479d49ff9c7366125a942436483604051610439919061069e565b60405180910390a2506000600160006101000a81548160ff02191690831515021790555050565b60008060008373ffffffffffffffffffffffffffffffffffffffff1673ffffffffffffffffffffffffffffffffffffffff168152602001908152602001600020549050919050565b6802b5e3af16b188000081565b600047905090565b60003411610500576040517f08c379a00000000000000000000000000000000000000000000000000000000081526004016104f790610a14565b60405180910390fd5b68056bc75e2d6310000034111561054c576040517f08c379a000000000000000000000000000000000000000000000000000000000815260040161054390610aa6565b60405180910390fd5b346000803373ffffffffffffffffffffffffffffffffffffffff1673ffffffffffffffffffffffffffffffffffffffff168152602001908152602001600020600082825401925050819055503373ffffffffffffffffffffffffffffffffffffffff167fe1fffcc4923d04b559f4d29a8bfc6cda04eb5b0d3c460751c2402c5c5cc9109c346040516105de919061069e565b60405180910390a2565b68056bc75e2d6310000081565b600080fd5b600073ffffffffffffffffffffffffffffffffffffffff82169050919050565b6000610625826105fa565b9050919050565b6106358161061a565b811461064057600080fd5b50565b6000813590506106528161062c565b92915050565b60006020828403121561066e5761066d6105f5565b5b600061067c84828501610643565b91505092915050565b6000819050919050565b61069881610685565b82525050565b60006020820190506106b3600083018461068f565b92915050565b6106c281610685565b81146106cd57600080fd5b50565b6000813590506106df816106b9565b92915050565b6000602082840312156106fb576106fa6105f5565b5b6000610709848285016106d0565b91505092915050565b600082825260208201905092915050565b7f5265656e7472616e742063616c6c206465746563746564000000000000000000600082015250565b6000610759601783610712565b915061076482610723565b602082019050919050565b600060208201905081810360008301526107888161074c565b9050919050565b7f576974686472617720616d6f756e74206578636565647320746865206d61786960008201527f6d756d20616c6c6f776564000000000000000000000000000000000000000000602082015250565b60006107eb602b83610712565b91506107f68261078f565b604082019050919050565b6000602082019050818103600083015261081a816107de565b9050919050565b7f496e73756666696369656e742062616c616e6365000000000000000000000000600082015250565b6000610857601483610712565b915061086282610821565b602082019050919050565b600060208201905081810360008301526108868161084a565b9050919050565b7f4e487b7100000000000000000000000000000000000000000000000000000000600052601160045260246000fd5b60006108c782610685565b91506108d283610685565b92508282039050818111156108ea576108e961088d565b5b92915050565b600081905092915050565b50565b600061090b6000836108f0565b9150610916826108fb565b600082019050919050565b600061092c826108fe565b9150819050919050565b7f5769746864726177206661696c65640000000000000000000000000000000000600082015250565b600061096c600f83610712565b915061097782610936565b602082019050919050565b6000602082019050818103600083015261099b8161095f565b9050919050565b7f4465706f73697420616d6f756e74206d7573742062652067726561746572207460008201527f68616e2030000000000000000000000000000000000000000000000000000000602082015250565b60006109fe602583610712565b9150610a09826109a2565b604082019050919050565b60006020820190508181036000830152610a2d816109f1565b9050919050565b7f4465706f73697420616d6f756e74206578636565647320746865206d6178696d60008201527f756d20616c6c6f77656400000000000000000000000000000000000000000000602082015250565b6000610a90602a83610712565b9150610a9b82610a34565b604082019050919050565b60006020820190508181036000830152610abf81610a83565b905091905056fea2646970667358221220f334f839e00f459f2405aa212fad3bed8c16e020bbaff74a609ed6a7a26a2bf664736f6c63430008180033",
  "linkReferences": {},
  "deployedLinkReferences": {}
}